{
  "_format": "hh-sol-artifact-1",
  "contractName": "NFT",
  "sourceName": "contracts/NFT.sol",
  "abi": [
    {
      "inputs": [],
      "stateMutability": "nonpayable",
      "type": "constructor"
    },
    {
      "anonymous": false,
      "inputs": [
        {
          "indexed": true,
          "internalType": "address",
          "name": "owner",
          "type": "address"
        },
        {
          "indexed": true,
          "internalType": "address",
          "name": "approved",
          "type": "address"
        },
        {
          "indexed": true,
          "internalType": "uint256",
          "name": "tokenId",
          "type": "uint256"
        }
      ],
      "name": "Approval",
      "type": "event"
    },
    {
      "anonymous": false,
      "inputs": [
        {
          "indexed": true,
          "internalType": "address",
          "name": "owner",
          "type": "address"
        },
        {
          "indexed": true,
          "internalType": "address",
          "name": "operator",
          "type": "address"
        },
        {
          "indexed": false,
          "internalType": "bool",
          "name": "approved",
          "type": "bool"
        }
      ],
      "name": "ApprovalForAll",
      "type": "event"
    },
    {
      "anonymous": false,
      "inputs": [
        {
          "indexed": true,
          "internalType": "address",
          "name": "from",
          "type": "address"
        },
        {
          "indexed": true,
          "internalType": "address",
          "name": "to",
          "type": "address"
        },
        {
          "indexed": true,
          "internalType": "uint256",
          "name": "tokenId",
          "type": "uint256"
        }
      ],
      "name": "Transfer",
      "type": "event"
    },
    {
      "inputs": [
        {
          "internalType": "address",
          "name": "to",
          "type": "address"
        },
        {
          "internalType": "uint256",
          "name": "tokenId",
          "type": "uint256"
        }
      ],
      "name": "approve",
      "outputs": [],
      "stateMutability": "nonpayable",
      "type": "function"
    },
    {
      "inputs": [
        {
          "internalType": "address",
          "name": "owner",
          "type": "address"
        }
      ],
      "name": "balanceOf",
      "outputs": [
        {
          "internalType": "uint256",
          "name": "",
          "type": "uint256"
        }
      ],
      "stateMutability": "view",
      "type": "function"
    },
    {
      "inputs": [
        {
          "internalType": "uint256",
          "name": "tokenId",
          "type": "uint256"
        }
      ],
      "name": "getApproved",
      "outputs": [
        {
          "internalType": "address",
          "name": "",
          "type": "address"
        }
      ],
      "stateMutability": "view",
      "type": "function"
    },
    {
      "inputs": [
        {
          "internalType": "address",
          "name": "owner",
          "type": "address"
        },
        {
          "internalType": "address",
          "name": "operator",
          "type": "address"
        }
      ],
      "name": "isApprovedForAll",
      "outputs": [
        {
          "internalType": "bool",
          "name": "",
          "type": "bool"
        }
      ],
      "stateMutability": "view",
      "type": "function"
    },
    {
      "inputs": [
        {
          "internalType": "string",
          "name": "baseUri",
          "type": "string"
        }
      ],
      "name": "mint",
      "outputs": [
        {
          "internalType": "uint256",
          "name": "",
          "type": "uint256"
        }
      ],
      "stateMutability": "nonpayable",
      "type": "function"
    },
    {
      "inputs": [],
      "name": "name",
      "outputs": [
        {
          "internalType": "string",
          "name": "",
          "type": "string"
        }
      ],
      "stateMutability": "view",
      "type": "function"
    },
    {
      "inputs": [
        {
          "internalType": "uint256",
          "name": "tokenId",
          "type": "uint256"
        }
      ],
      "name": "ownerOf",
      "outputs": [
        {
          "internalType": "address",
          "name": "",
          "type": "address"
        }
      ],
      "stateMutability": "view",
      "type": "function"
    },
    {
      "inputs": [
        {
          "internalType": "address",
          "name": "from",
          "type": "address"
        },
        {
          "internalType": "address",
          "name": "to",
          "type": "address"
        },
        {
          "internalType": "uint256",
          "name": "tokenId",
          "type": "uint256"
        }
      ],
      "name": "safeTransferFrom",
      "outputs": [],
      "stateMutability": "nonpayable",
      "type": "function"
    },
    {
      "inputs": [
        {
          "internalType": "address",
          "name": "from",
          "type": "address"
        },
        {
          "internalType": "address",
          "name": "to",
          "type": "address"
        },
        {
          "internalType": "uint256",
          "name": "tokenId",
          "type": "uint256"
        },
        {
          "internalType": "bytes",
          "name": "data",
          "type": "bytes"
        }
      ],
      "name": "safeTransferFrom",
      "outputs": [],
      "stateMutability": "nonpayable",
      "type": "function"
    },
    {
      "inputs": [
        {
          "internalType": "address",
          "name": "operator",
          "type": "address"
        },
        {
          "internalType": "bool",
          "name": "approved",
          "type": "bool"
        }
      ],
      "name": "setApprovalForAll",
      "outputs": [],
      "stateMutability": "nonpayable",
      "type": "function"
    },
    {
      "inputs": [
        {
          "internalType": "bytes4",
          "name": "interfaceId",
          "type": "bytes4"
        }
      ],
      "name": "supportsInterface",
      "outputs": [
        {
          "internalType": "bool",
          "name": "",
          "type": "bool"
        }
      ],
      "stateMutability": "view",
      "type": "function"
    },
    {
      "inputs": [],
      "name": "symbol",
      "outputs": [
        {
          "internalType": "string",
          "name": "",
          "type": "string"
        }
      ],
      "stateMutability": "view",
      "type": "function"
    },
    {
      "inputs": [],
      "name": "tokenId",
      "outputs": [
        {
          "internalType": "uint256",
          "name": "_value",
          "type": "uint256"
        }
      ],
      "stateMutability": "view",
      "type": "function"
    },
    {
      "inputs": [
        {
          "internalType": "uint256",
          "name": "_tokenId",
          "type": "uint256"
        }
      ],
      "name": "tokenURI",
      "outputs": [
        {
          "internalType": "string",
          "name": "",
          "type": "string"
        }
      ],
      "stateMutability": "view",
      "type": "function"
    },
    {
      "inputs": [
        {
          "internalType": "address",
          "name": "from",
          "type": "address"
        },
        {
          "internalType": "address",
          "name": "to",
          "type": "address"
        },
        {
          "internalType": "uint256",
          "name": "tokenId",
          "type": "uint256"
        }
      ],
      "name": "transferFrom",
      "outputs": [],
      "stateMutability": "nonpayable",
      "type": "function"
    }
  ],
  "bytecode": "0x60806040523480156200001157600080fd5b50604080518082018252600a815269414920417274776f726b60b01b60208083019182528351808501909452600384526220a4a760e91b9084015281519192916200005f916000916200007e565b508051620000759060019060208401906200007e565b50505062000161565b8280546200008c9062000124565b90600052602060002090601f016020900481019282620000b05760008555620000fb565b82601f10620000cb57805160ff1916838001178555620000fb565b82800160010185558215620000fb579182015b82811115620000fb578251825591602001919060010190620000de565b50620001099291506200010d565b5090565b5b808211156200010957600081556001016200010e565b600181811c908216806200013957607f821691505b602082108114156200015b57634e487b7160e01b600052602260045260246000fd5b50919050565b61169f80620001716000396000f3fe608060405234801561001057600080fd5b50600436106100f55760003560e01c80636352211e11610097578063b88d4fde11610066578063b88d4fde146101f6578063c87b56dd14610209578063d85d3d271461021c578063e985e9c51461022f57600080fd5b80636352211e146101b557806370a08231146101c857806395d89b41146101db578063a22cb465146101e357600080fd5b8063095ea7b3116100d3578063095ea7b31461016257806317d70f7c1461017757806323b872dd1461018f57806342842e0e146101a257600080fd5b806301ffc9a7146100fa57806306fdde0314610122578063081812fc14610137575b600080fd5b61010d61010836600461136c565b61026b565b60405190151581526020015b60405180910390f35b61012a6102bd565b604051610119919061149a565b61014a6101453660046113ea565b61034f565b6040516001600160a01b039091168152602001610119565b610175610170366004611343565b610376565b005b6007546101819081565b604051908152602001610119565b61017561019d366004611255565b610491565b6101756101b0366004611255565b6104c2565b61014a6101c33660046113ea565b6104dd565b6101816101d6366004611209565b61053d565b61012a6105c3565b6101756101f1366004611309565b6105d2565b610175610204366004611290565b6105e1565b61012a6102173660046113ea565b610619565b61018161022a3660046113a4565b610624565b61010d61023d366004611223565b6001600160a01b03918216600090815260056020908152604080832093909416825291909152205460ff1690565b60006001600160e01b031982166380ac58cd60e01b148061029c57506001600160e01b03198216635b5e139f60e01b145b806102b757506301ffc9a760e01b6001600160e01b03198316145b92915050565b6060600080546102cc906115ec565b80601f01602080910402602001604051908101604052809291908181526020018280546102f8906115ec565b80156103455780601f1061031a57610100808354040283529160200191610345565b820191906000526020600020905b81548152906001019060200180831161032857829003601f168201915b5050505050905090565b600061035a82610654565b506000908152600460205260409020546001600160a01b031690565b6000610381826104dd565b9050806001600160a01b0316836001600160a01b031614156103f45760405162461bcd60e51b815260206004820152602160248201527f4552433732313a20617070726f76616c20746f2063757272656e74206f776e656044820152603960f91b60648201526084015b60405180910390fd5b336001600160a01b03821614806104105750610410813361023d565b6104825760405162461bcd60e51b815260206004820152603d60248201527f4552433732313a20617070726f76652063616c6c6572206973206e6f7420746f60448201527f6b656e206f776e6572206f7220617070726f76656420666f7220616c6c00000060648201526084016103eb565b61048c83836106b6565b505050565b61049b3382610724565b6104b75760405162461bcd60e51b81526004016103eb906114ad565b61048c8383836107a3565b61048c838383604051806020016040528060008152506105e1565b6000818152600260205260408120546001600160a01b0316806102b75760405162461bcd60e51b8152602060048201526018602482015277115490cdcc8c4e881a5b9d985b1a59081d1bdad95b88125160421b60448201526064016103eb565b60006001600160a01b0382166105a75760405162461bcd60e51b815260206004820152602960248201527f4552433732313a2061646472657373207a65726f206973206e6f7420612076616044820152683634b21037bbb732b960b91b60648201526084016103eb565b506001600160a01b031660009081526003602052604090205490565b6060600180546102cc906115ec565b6105dd338383610914565b5050565b6105eb3383610724565b6106075760405162461bcd60e51b81526004016103eb906114ad565b610613848484846109e3565b50505050565b60606102b782610a16565b60008061063060075490565b905061063c3382610b1f565b61064a600780546001019055565b6102b78184610cb8565b6000818152600260205260409020546001600160a01b03166106b35760405162461bcd60e51b8152602060048201526018602482015277115490cdcc8c4e881a5b9d985b1a59081d1bdad95b88125160421b60448201526064016103eb565b50565b600081815260046020526040902080546001600160a01b0319166001600160a01b03841690811790915581906106eb826104dd565b6001600160a01b03167f8c5be1e5ebec7d5bd14f71427d1e84f3dd0314c0f7b2291e5b200ac8c7c3b92560405160405180910390a45050565b600080610730836104dd565b9050806001600160a01b0316846001600160a01b0316148061077757506001600160a01b0380821660009081526005602090815260408083209388168352929052205460ff165b8061079b5750836001600160a01b03166107908461034f565b6001600160a01b0316145b949350505050565b826001600160a01b03166107b6826104dd565b6001600160a01b0316146107dc5760405162461bcd60e51b81526004016103eb9061154c565b6001600160a01b03821661083e5760405162461bcd60e51b8152602060048201526024808201527f4552433732313a207472616e7366657220746f20746865207a65726f206164646044820152637265737360e01b60648201526084016103eb565b61084b8383836001610d52565b826001600160a01b031661085e826104dd565b6001600160a01b0316146108845760405162461bcd60e51b81526004016103eb9061154c565b600081815260046020908152604080832080546001600160a01b03199081169091556001600160a01b0387811680865260038552838620805460001901905590871680865283862080546001019055868652600290945282852080549092168417909155905184937fddf252ad1be2c89b69c2b068fc378daa952ba7f163c4a11628f55a4df523b3ef91a4505050565b816001600160a01b0316836001600160a01b031614156109765760405162461bcd60e51b815260206004820152601960248201527f4552433732313a20617070726f766520746f2063616c6c65720000000000000060448201526064016103eb565b6001600160a01b03838116600081815260056020908152604080832094871680845294825291829020805460ff191686151590811790915591519182527f17307eab39ab6107e8899845ad3d59bd9653f200f220920489ca2b5937696c31910160405180910390a3505050565b6109ee8484846107a3565b6109fa84848484610dda565b6106135760405162461bcd60e51b81526004016103eb906114fa565b6060610a2182610654565b60008281526006602052604081208054610a3a906115ec565b80601f0160208091040260200160405190810160405280929190818152602001828054610a66906115ec565b8015610ab35780601f10610a8857610100808354040283529160200191610ab3565b820191906000526020600020905b815481529060010190602001808311610a9657829003601f168201915b505050505090506000610ad160408051602081019091526000815290565b9050805160001415610ae4575092915050565b815115610b16578082604051602001610afe92919061142e565b60405160208183030381529060405292505050919050565b61079b84610ee7565b6001600160a01b038216610b755760405162461bcd60e51b815260206004820181905260248201527f4552433732313a206d696e7420746f20746865207a65726f206164647265737360448201526064016103eb565b6000818152600260205260409020546001600160a01b031615610bda5760405162461bcd60e51b815260206004820152601c60248201527f4552433732313a20746f6b656e20616c7265616479206d696e7465640000000060448201526064016103eb565b610be8600083836001610d52565b6000818152600260205260409020546001600160a01b031615610c4d5760405162461bcd60e51b815260206004820152601c60248201527f4552433732313a20746f6b656e20616c7265616479206d696e7465640000000060448201526064016103eb565b6001600160a01b038216600081815260036020908152604080832080546001019055848352600290915280822080546001600160a01b0319168417905551839291907fddf252ad1be2c89b69c2b068fc378daa952ba7f163c4a11628f55a4df523b3ef908290a45050565b6000828152600260205260409020546001600160a01b0316610d335760405162461bcd60e51b815260206004820152602e60248201527f45524337323155524953746f726167653a2055524920736574206f66206e6f6e60448201526d32bc34b9ba32b73a103a37b5b2b760911b60648201526084016103eb565b6000828152600660209081526040909120825161048c928401906110de565b6001811115610613576001600160a01b03841615610d98576001600160a01b03841660009081526003602052604081208054839290610d929084906115a9565b90915550505b6001600160a01b03831615610613576001600160a01b03831660009081526003602052604081208054839290610dcf908490611591565b909155505050505050565b60006001600160a01b0384163b15610edc57604051630a85bd0160e11b81526001600160a01b0385169063150b7a0290610e1e90339089908890889060040161145d565b602060405180830381600087803b158015610e3857600080fd5b505af1925050508015610e68575060408051601f3d908101601f19168201909252610e6591810190611388565b60015b610ec2573d808015610e96576040519150601f19603f3d011682016040523d82523d6000602084013e610e9b565b606091505b508051610eba5760405162461bcd60e51b81526004016103eb906114fa565b805181602001fd5b6001600160e01b031916630a85bd0160e11b14905061079b565b506001949350505050565b6060610ef282610654565b6000610f0960408051602081019091526000815290565b90506000815111610f295760405180602001604052806000815250610f54565b80610f3384610f5b565b604051602001610f4492919061142e565b6040516020818303038152906040525b9392505050565b60606000610f6883611006565b600101905060008167ffffffffffffffff811115610f9657634e487b7160e01b600052604160045260246000fd5b6040519080825280601f01601f191660200182016040528015610fc0576020820181803683370190505b5090508181016020015b600019016f181899199a1a9b1b9c1cb0b131b232b360811b600a86061a8153600a8504945084610ff957610ffe565b610fca565b509392505050565b60008072184f03e93ff9f4daa797ed6e38ed64bf6a1f0160401b83106110455772184f03e93ff9f4daa797ed6e38ed64bf6a1f0160401b830492506040015b6d04ee2d6d415b85acef81000000008310611071576d04ee2d6d415b85acef8100000000830492506020015b662386f26fc10000831061108f57662386f26fc10000830492506010015b6305f5e10083106110a7576305f5e100830492506008015b61271083106110bb57612710830492506004015b606483106110cd576064830492506002015b600a83106102b75760010192915050565b8280546110ea906115ec565b90600052602060002090601f01602090048101928261110c5760008555611152565b82601f1061112557805160ff1916838001178555611152565b82800160010185558215611152579182015b82811115611152578251825591602001919060010190611137565b5061115e929150611162565b5090565b5b8082111561115e5760008155600101611163565b600067ffffffffffffffff808411156111925761119261163d565b604051601f8501601f19908116603f011681019082821181831017156111ba576111ba61163d565b816040528093508581528686860111156111d357600080fd5b858560208301376000602087830101525050509392505050565b80356001600160a01b038116811461120457600080fd5b919050565b60006020828403121561121a578081fd5b610f54826111ed565b60008060408385031215611235578081fd5b61123e836111ed565b915061124c602084016111ed565b90509250929050565b600080600060608486031215611269578081fd5b611272846111ed565b9250611280602085016111ed565b9150604084013590509250925092565b600080600080608085870312156112a5578081fd5b6112ae856111ed565b93506112bc602086016111ed565b925060408501359150606085013567ffffffffffffffff8111156112de578182fd5b8501601f810187136112ee578182fd5b6112fd87823560208401611177565b91505092959194509250565b6000806040838503121561131b578182fd5b611324836111ed565b915060208301358015158114611338578182fd5b809150509250929050565b60008060408385031215611355578182fd5b61135e836111ed565b946020939093013593505050565b60006020828403121561137d578081fd5b8135610f5481611653565b600060208284031215611399578081fd5b8151610f5481611653565b6000602082840312156113b5578081fd5b813567ffffffffffffffff8111156113cb578182fd5b8201601f810184136113db578182fd5b61079b84823560208401611177565b6000602082840312156113fb578081fd5b5035919050565b6000815180845261141a8160208601602086016115c0565b601f01601f19169290920160200192915050565b600083516114408184602088016115c0565b8351908301906114548183602088016115c0565b01949350505050565b6001600160a01b038581168252841660208201526040810183905260806060820181905260009061149090830184611402565b9695505050505050565b602081526000610f546020830184611402565b6020808252602d908201527f4552433732313a2063616c6c6572206973206e6f7420746f6b656e206f776e6560408201526c1c881bdc88185c1c1c9bdd9959609a1b606082015260800190565b60208082526032908201527f4552433732313a207472616e7366657220746f206e6f6e20455243373231526560408201527131b2b4bb32b91034b6b83632b6b2b73a32b960711b606082015260800190565b60208082526025908201527f4552433732313a207472616e736665722066726f6d20696e636f72726563742060408201526437bbb732b960d91b606082015260800190565b600082198211156115a4576115a4611627565b500190565b6000828210156115bb576115bb611627565b500390565b60005b838110156115db5781810151838201526020016115c3565b838111156106135750506000910152565b600181811c9082168061160057607f821691505b6020821081141561162157634e487b7160e01b600052602260045260246000fd5b50919050565b634e487b7160e01b600052601160045260246000fd5b634e487b7160e01b600052604160045260246000fd5b6001600160e01b0319811681146106b357600080fdfea2646970667358221220b6341a0ccb4027af801e652648a1e0f45003eb43dc4ee02dc067d39a5d51427664736f6c63430008040033",
  "linkReferences": {},
  "deployedLinkReferences": {}
}